:100000000C9447020C948E020C948E020C948E0277
:100010000C948E020C948E020C948E020C948E0220
:100020000C948E020C948E020C94E2230C94B42453
:100030000C94B11E0C948E020C948E020C948E02C1
:100040000C948E020C948E020C948E020C948E02F0
:100050000C948E020C940A1F0C948E020C948E0247
:100060000C948E020C948E020C948E020C948E02D0
:100070000C948E020C948E020C948E020C948E02C0
:100080000C948E020C948E020C948E020C948E02B0
:100090000C948E020C948E020C948E020C948E02A0
:1000A0000C948E020C948E020C948E02AB02AE0263
:1000B000B1020203B4020903B802BC02C002CB02BF
:1000C000CE02D4023C03DA024203DE02E102E40281
:1000D000F102F802FF020203050309030D031003F6
:1000E00017032603300339033C033F03420347034E
:1000F0004B035603850C880C8D0C940C990C9E0CAC
:10010000A30CA80CAD0CB20CB70CBC0CC20CC20CEE
:10011000C20CC20CC20CC20CC20CC20C88148814D3
:10012000BA14BA1407152515461646163015C51506
:10013000D615D6153616461646163F16E616E61698
:10014000F816F816EF16F816F816F816E616E6166C
:10015000F416F816F816F4162125482540264825E9
:1001600040269425B72540260E261D26125D135DD8
:10017000145D155D03510000000000000000095DE2
:100180000A5D0B5D0C5D0D5D0E5D0F5D105D115D1B
:100190000100010001000100035100000000000007
:1001A0000000010001000100010001000100010048
:1001B0000100010022001E0027002A000351000058
:1001C000000000000000010001000100010001002A
:1001D00001000100010001002B0028002A00290075
:1001E000010000000000000000001050A9001250A3
:1001F000AA001150A8000100010001000001010146
:1002000001010101010102020202020202020203D3
:1002100003030303030303040404040404040505A3
:100220000505050606060606070707070708080866
:1002300008090909090A0A0A0B0B0B0C0C0C0D0D15
:100240000D0E0E0E0F0F0F101011111112121313AD
:100250001414151516161717181819191A1A1B1B26
:100260001C1D1D1E1E1F2020212222232424252682
:1002700026272829292A2B2C2D2D2E2F30313232BA
:10028000333435363738393A3B3C3D3E3F404142C6
:10029000434445464748494A4C4D4E4F50515354AC
:1002A000555658595A5B5D5E5F6162646566686960
:1002B0006B6C6D6F7072737577787A7B7D7E8082E0
:1002C000838587888A8C8E8F91939596989A9C9E29
:1002D000A0A2A3A5A7A9ABADAFB1B3B5B7BABCBE39
:1002E000C0C2C4C6C9CBCDCFD1D4D6D8DBDDDFE206
:1002F000E4E7E9EBEEF0F3F5F8FAFDFF0C03640038
:10030000690076006500390000002C03410074008C
:10031000730075007300680069005F004D006F0096
:10032000720069006D006F0074006F005F0037009D
:10033000340074006800000004030904090254003A
:10034000030100A0FA0904000001030101000921D2
:10035000110100012240000705810308000A090479
:1003600001000103000000092111010001227B00AE
:100370000705820320000A090402000103000000AF
:100380000921110100012230000705830308000A3A
:10039000120110010000000874DA62740100010209
:1003A000000105010904A101A1000501093009317D
:1003B0001581257F95027508810205091901290E0D
:1003C00015002501950E75018102950275018101C7
:1003D000C0C005010902A10185020901A1000509AA
:1003E00019012908150025019508750181020501EB
:1003F000093009311581257F950275088106093874
:100400001581257F950175088106050C0A380215AE
:1004100081257F950175088106C0C005010980A16D
:1004200001850319012AB700150126B7009501754A
:10043000108100C0050C0901A101850419012AA041
:1004400002150126A002950175108100C005010961
:1004500006A101050719E029E71500250195087592
:100460000181029501750881010507190029FF1511
:100470000026FF0095067508810005081901290569
:10048000950575019102950175039101C000112434
:100490001FBECFEFDAE0DEBFCDBF04B603FE27C03C
:1004A0008091830290918402A0918502B09186028E
:1004B0008730904BA740B04BD1F41092830210923A
:1004C0008402109285021092860214BE84B7877F40
:1004D00084BF0FB6F894A8958091600088618093DE
:1004E0006000109260000FBEE0E0F8E3099511E0B3
:1004F000A0E0B1E0EEE9FEE402C005900D92AC3A56
:10050000B107D9F722E0ACEAB1E001C01D92A338EF
:10051000B207E1F70E941D210C944D270C940000B6
:100520000F931F93CF93DF93EC018B0182E00E9426
:10053000101BF8019281FE01E950FD45882309F462
:1005400046C0992301F1E930F10508F0BDC0EA5A2F
:10055000FF4F0C94BB2625E532E059C028E532E078
:100560000DC02BE532E006C021E632E04FEFA6C019
:1005700027E632E04FEF1BC02AE632E04FEF11C012
:100580002DE632E044C0E930F10508F09DC0E15AA3
:10059000FF4F0C94BB2625E532E07BC028E532E016
:1005A00040E26FEF8BE28EC02BE532E040E26FEF6E
:1005B00085E588C021E632E040E280C027E632E0EF
:1005C000F5CF2AE632E0ECCF2DE632E062C0992387
:1005D000A9F1E930F10508F077C0E859FF4F0C9414
:1005E000BB2681E00E94101B25E532E04FEF34C0AE
:1005F00081E00E94101B28E532E04FEF37C02BE569
:1006000032E005C02EE532E006C021E632E04FEFD1
:1006100057C024E632E04FEF38C027E632E0F7CF8C
:1006200081E00E94101B2AE632E04FEF3AC081E0E1
:100630000E94101B2DE632E04FEF3EC0E930F1057D
:1006400008F042C0EF58FF4F0C94BB2681E00E9497
:10065000101B25E532E040E26FEF882391F124C0C2
:1006600081E00E94101B28E532E040E2882331F14E
:1006700027C02BE532E00DC02EE532E005C021E6B3
:1006800032E007C024E632E040E26FEF0DC027E61B
:1006900032E040E215C081E00E94101B2AE632E001
:1006A00040E26FEF81110DC08AEA0CC081E00E9428
:1006B000101B2DE632E040E2882311F06FEF01C0FD
:1006C00060E080E00E949B0ADF91CF911F910F9123
:1006D0000C94FF0A81E0089581E008950C946C0366
:1006E0000C9490021F93CF93DF9300D000D01F9201
:1006F000CDB7DEB749835A836B833091DF0189819F
:100700009A81311114C0662359F0222349F00E94C6
:10071000251C182F682F89819A810E94CE1B03C047
:100720000E94F91B182F69817A81812F04C00E94D1
:10073000251C69817A810F900F900F900F900F9078
:10074000DF91CF911F910C943204FC01262F408140
:1007500051816281738184810C947203CF93DF9302
:10076000EC0160E00E94A503BE01DF91CF910C94E3
:1007700070030E94481F0E945F1D811102C00E94E9
:10078000061E0C9455060C94510608950E94D4162A
:100790000E94C5032FEF84E39CE0215080409040ED
:1007A000E1F700C000000C94301F0F931F93CF930C
:1007B000DF93EC0161E00E94A5038C01BE010E9461
:1007C0006E038823A9F1BE01C8010E94660D88232B
:1007D00079F1BE01C8010E94B80D882349F1BE011C
:1007E000C8010E94E30E882319F1BE01C8010E94CE
:1007F0006E0C8823E9F0BE01C8010E94470F8823D0
:10080000B9F08A81882369F001158CE5180731F069
:100810000F3D1C4531F40E94061E0AC00E94C6030B
:1008200007C0CE01DF91CF911F910F910C946A0305
:1008300080E0DF91CF911F910F91089508950C945E
:100840001E0481E008950C942104CF93C82F0E94C8
:100850001F048C2F0E942304CF91089580E090E024
:100860000895089522E1829FC0011124FC0129E02E
:10087000729FE00DF11D1124E60FF11DEE0FFF1F19
:10088000E459FE4F859194910895880F991FFC01BA
:10089000E450FE4F859194910895CF93DF930E9489
:1008A00032040E946505EC018115904508F041C0B5
:1008B000C11580E4D80708F0D1C0C83ED10510F5B5
:1008C000C03ED10508F0FDC0C83AD10578F4C53A5C
:1008D000D10508F0A2C0C130D10509F4F2C008F476
:1008E000EEC0C430D10508F0ECC0E9C0CF3BD10563
:1008F00008F49BC0C03CD10508F4E1C0CE01805C87
:1009000091099EC0C11590E2D90758F4C11521E0A4
:10091000D20708F0D6C0CD3ED10508F4D0C0D065CE
:10092000D0C0C11580E3D80708F08EC0CE019F70FB
:1009300087C0C11595E5D90708F043C0C11524E566
:10094000D20708F0A2C0C11582E5D80708F5C11585
:1009500091E5D90708F085C0CE0174E0969587959A
:100960007A95E1F783709C2F937021E030E002C00C
:10097000220F331F9A95E2F73C68382BCF70C6954B
:10098000C69580E2C89FE0011124C22BD32B99C0E9
:100990009E01237033278C2F86958695C115D345EC
:1009A00008F064C0C1E0D0E002C0CC0FDD1F2A9582
:1009B000E2F720E2829FC0011124C82BD92BDC680A
:1009C00080C0C11529E5D207A0F4C11588E5D80774
:1009D00008F060C0C11596E5D90708F070C08C2FEB
:1009E0000E94F9058F71C82FD0E0DC2FCC27D06290
:1009F00068C0C1152AE5D20708F451C0CE0190564F
:100A00008115904208F05BC08D2F8F710E94F9050F
:100A1000DD27D0628F71D82B54C0C55AD0E0C55A9B
:100A2000DE4FC881D0E0D0644CC0C85AD0E0CC0FB3
:100A3000DD1FC35DDE4F0990D881C02DD46441C055
:100A40000E944504EC013DC0CE019927D3FF03C0AD
:100A5000EC01D86C36C0EC01D06C33C0DF70D06ACA
:100A600030C0DC2FCC27C16FD06A2BC0C1E0D0E0F2
:100A700002C0CC0FDD1F2A95E2F720E2829FC00161
:100A80001124C82BD92BDA681CC0DC2FCC27C46FEB
:100A9000D06A17C0DC2FCC27C06FD06A12C08C2F51
:100AA0008F700E94F90594E0D695C7959A95E1F765
:100AB000CF70D0E0DC2FCC27D069C82B02C0C0E0BB
:100AC000D0E0CE01DF91CF9108958238910569F190
:100AD000B0F48133910509F46DC048F48932910571
:100AE00009F463C08A32910509F469C00895853319
:100AF000910509F455C089339105B9F00895833EF5
:100B0000910569F138F4803E9105B1F0823E91057E
:100B100009F10895863E9105A9F1873E9105B9F145
:100B2000843E910509F064C023C02091740220FD29
:100B30004FC021FD4DC008958091740280FD44C0D6
:100B40008091750280FF44C08091740284FD42C090
:100B500083EE4DC08091740282FF38C0F5CF809142
:100B6000740282FD33C08091750280FD31C0ECCFEC
:100B70008091750281FF32C08091740284FD2AC089
:100B800087EE35C08091740283FF26C0F5CF809137
:100B9000740283FD21C08091750281FD1FC0ECCFDE
:100BA0008091740285FD1CC01DC08091740285FD7A
:100BB00019C016C08091740286FD16C017C08091BE
:100BC000740286FD13C010C089E311C082EE0FC00D
:100BD00080EE0DC080E00BC086EE09C084EE07C039
:100BE00089E205C085E303C08AE201C081E390E0A9
:100BF00008959091740292FF0DC0282F287128301B
:100C000019F4877F846006C0282F2471243011F4E2
:100C10008B7F886093FF0DC0282F2871283119F42D
:100C2000877E846106C0282F2471243111F48B7EC5
:100C300088612091750220FF0DC0382F387138303F
:100C400019F4877F816006C0382F3171313011F47B
:100C50008E7F886021FF0DC0282F2871283119F45C
:100C6000877E816106C0282F2171213111F48E7E8B
:100C7000886194FD877E0895E82FF0E0EE0FFF1F56
:100C8000E45BFD4F808191810895089580EA8A9503
:100C9000F1F7089500C008950C94460608950C9449
:100CA0004E060C944F060C944E060C945306F89482
:100CB000E82FE295EF70F0E031A1282F2F7081E04E
:100CC00090E001C0880F2A95EAF7982F909593231A
:100CD00091A392A1892B82A378940895CF93DF9357
:100CE00083E30E94570682E30E945706CEE5D1E0D7
:100CF00089910E94570681E0C736D807C9F710923C
:100D000049021092480210924D0210924C02109229
:100D10004B0210924A0210924F0210924E0282E051
:100D20000E942807DF91CF910C94B9037F928F9294
:100D30009F92AF92BF92CF92DF92EF92FF920F936A
:100D40001F93CF93DF9308E412E087E6E82E81E05B
:100D5000F82EC0E0D0E0712CAA24A394B12C470156
:100D6000F7018081F894E82FE295EF70F0E021A17F
:100D70008F70A50102C0440F551F8A95E2F7CA0182
:100D8000922F982B91A392A18095892382A3789486
:100D90000E944A06EEE5F1E020E030E0C12CD12CC3
:100DA0004191A42FA295AF70B0E090968C9190E005
:100DB0004F7002C0959587954A95E2F780FD08C06F
:100DC000C501022E02C0880F991F0A94E2F702C0E3
:100DD00080E090E0C82AD92A2F5F3F4F29303105A3
:100DE000F9F65FEFE51AF50AF40180810E945706D3
:100DF000209711F40E944C06F80180819181C81659
:100E0000D90621F0D182C08281E001C080E0782A39
:100E100021960E5F1F4FC230D10509F0A0CF272DBC
:100E200042E06CE472E088E492E00E9429070E94AC
:100E3000C303872DDF91CF911F910F91FF90EF900A
:100E4000DF90CF90BF90AF909F908F907F9008954C
:100E50000895FF920F931F93CF93DF93F82E092FDE
:100E6000162FD72FC42F222349F081E08093B001A1
:100E70000E94E31E9093AF018093AE018091B00178
:100E80008823D9F08091AE019091AF010E94FB1EA2
:100E9000069798F0EF2DF02FA12FBD2F80E090E066
:100EA0004C2F50E08417950734F4219131912D9304
:100EB0003D930196F7CF1092B001DF91CF911F9132
:100EC0000F91FF9008958091B70180FF0BC0609152
:100ED000170185E0689FB001112475956795759598
:100EE00067952BC081FF09C06091170185E0689F5D
:100EF000B00111247595679520C082FF07C06091ED
:100F0000170185E0689FB001112417C09091B601C8
:100F10009923D1F060911601961788F72091170157
:100F200085E0289F90011124929FA001939F500D6E
:100F3000112470E0CA010E9488266038710540F4CF
:100F40006115710519F406C065E070E0862F0895FB
:100F50008FE7089581E008958091B70180FF08C070
:100F60006091130170E0759567957595679521C03F
:100F700081FF06C06091130170E07595679519C0F7
:100F800082FF04C06091130170E010C09091B50120
:100F9000992399F0609112019617A0F7809113019F
:100FA000899FC001112470E00E9488266038710575
:100FB00040F46115710519F406C061E070E0862FF8
:100FC00008958FE7089581E008958D3E21F40E94F1
:100FD0006307819504C08E3E29F40E9463078093C5
:100FE000BB0108958F3E21F40E946307819504C0E0
:100FF000803F29F40E9463078093BA010895893FD6
:1010000019F40E94AC0705C08A3F31F40E94AC0776
:1010100081958093BC0108958B3F21F40E94AC0719
:10102000819504C08C3F29F40E94AC078093BD01D8
:1010300008959FE0980F983078F421E030E0A901FE
:1010400002C0440F551F9A95E2F7CA019091B90169
:10105000892B8093B90108958D3F21F48091B701C8
:1010600081600BC08E3F21F48091B701826005C082
:101070008F3F29F48091B70184608093B701089570
:101080008D3E39F49091BB0197FF35C01092BB01A2
:1010900059C08E3E29F49091BB011916BCF32BC0A8
:1010A0009091BA018F3E29F497FF25C01092BA01A2
:1010B00049C0803F19F41916CCF31DC09091BC01B2
:1010C000893F29F41916BCF41092BC013BC08A3F39
:1010D00019F497FF10C0F8CF8B3F39F49091BD0100
:1010E00097FF09C01092BD012DC08C3F21F4909153
:1010F000BD011916BCF39FE0980F983080F421E0F1
:1011000030E0A90102C0440F551F9A95E2F7CA01C9
:1011100080959091B90189238093B90113C08D3FC7
:1011200021F48091B7018E7F0BC08E3F21F4809116
:10113000B7018D7F05C08F3F29F48091B7018B7F68
:101140008093B7018091BA01811106C08091BB01E3
:10115000811102C01092B6018091BC01811106C0BC
:101160008091BD01811102C01092B50108950E94C5
:10117000E31E2091BA01211104C02091BB0122235A
:1011800021F09093B4018093B3012091BC0121110F
:1011900004C02091BD01222321F09093B2018093DD
:1011A000B10188EB91E00C94A611EF92FF920F939E
:1011B0001F93CF93DF9300D000D000D0CDB7DEB720
:1011C00086E0E8EBF1E0DE01119601900D928A9540
:1011D000E1F7E090BA01F090BB010091BC011091E1
:1011E000BD011092BA011092BB011092BC01109285
:1011F000BD01E11003C0FF2009F45DC08091B3017F
:101200009091B4010E94FB1EAC019091B60199230C
:1012100039F02091180130E02417350758F04BC001
:10122000209119018AE0289F900111242417350785
:1012300018F041C09F3F19F09F5F9093B601EE20D8
:1012400061F00E9463071E1414F09FEF01C091E04B
:10125000989F902D11249093BA01FF2061F00E9475
:1012600063071F1414F09FEF01C091E0989F902D29
:1012700011249093BB013091BA013323E1F0209106
:10128000BB012223C1F045EB3403C0011124992393
:1012900019F09093BA0103C081E08093BA0135EB55
:1012A0002303C0011124992319F09093BB0103C0BB
:1012B00081E08093BB01011103C0112309F45DC0DB
:1012C0008091B1019091B2010E94FB1EAC019091FE
:1012D000B501992339F02091140130E02417350726
:1012E00058F04BC0209115018AE0289F90011124ED
:1012F0002417350718F041C09F3F19F09F5F909366
:10130000B501002361F00E94AC07101614F09FEFA6
:1013100001C091E0989F902D11249093BC0111235E
:1013200061F00E94AC07111614F09FEF01C091E02C
:10133000989F902D11249093BD013091BC013323CF
:10134000E1F02091BD012223C1F045EB3403C0013F
:101350001124992319F09093BC0103C081E080937C
:10136000BC0135EB2303C0011124992319F090939C
:10137000BD0103C081E08093BD018091BA0181115C
:101380000BC08091BB01811107C08091BC0181110C
:1013900003C08091BD0181110E94B708EB82FC82DD
:1013A0000D831E8386E0FE013196A8EBB1E001902B
:1013B0000D928A95E1F726960FB6F894DEBF0FBE20
:1013C000CDBFDF91CF911F910F91FF90EF900895C6
:1013D000E8EBF1E086E0DF011D928A95E9F71092D3
:1013E000B6011092B5011092B7010895EF92FF92E5
:1013F0000F931F93CF93DF938B01682F11110AC0B6
:10140000442329F0E82FF0E0E450FE4F6491762F5A
:10141000862F75C0212F30E0E82FF0E0442321F023
:10142000E450FE4FE491F0E046E0049FC001112437
:10143000CFEFD0E0BE010E9474264BEA4603C00104
:10144000479F900D1124800F911D800F911D982FA3
:10145000990F890FAE01421B530B4E9FD0014F9F36
:10146000B00D5E9FB00D11249B2F189FA001112479
:10147000452F55278E01041B150B0E9FA0010F9FB2
:10148000500D1E9F500D11247E01E81AF108E29EB6
:101490008001E39E100DF29E100D1124212F3327A1
:1014A000C21BD30BCE9F9001CF9F300DDE9F300D1E
:1014B000112462307105A9F048F46115710569F0D5
:1014C00061307105C9F48B2F752F0DC06430710523
:1014D00081F058F06630710579F47E2F8B2F932FB1
:1014E0000DC0832F7B2F9E2F09C08E2F7B2F952F12
:1014F00005C08E2F732F02C07E2F852F692FDF919D
:10150000CF911F910F91FF90EF90089541E00E94BD
:10151000F60908950E94860A0895CF93DF93762FE7
:10152000E901682F842F0E948A0A798368838A835D
:10153000DF91CF9108950C948D0A80915002982FDD
:101540009695913021F081708260809350020895C9
:1015500088E090E00C940D27CF92DF92EF92FF92FB
:101560006B017C010E949D0AB701A60188E090E012
:10157000FF90EF90DF90CF900C942B27E0E5F2E006
:1015800083E0808384EB81838FEF82838383148263
:1015900060817181828193810C94AC0A9091540294
:1015A000933018F49F5F90935402882351F0609118
:1015B00050027091510280915202909153020C940A
:1015C000AC0A089581E00C94CE0A909154029923BC
:1015D00019F0915090935402882351F06091500279
:1015E0007091510280915202909153020C94AC0A76
:1015F000089581E00C94E50A70E00C94C80C6091A9
:101600001B018091500280FF0AC080911A0123E0E3
:10161000829FC00111248B5A9D4F0C94FC0A80912B
:101620001C0190911D01891780F7E82FF0E09F01C0
:10163000220F331FE20FF31FEB5AFD4F118210826E
:1016400012828F5FF0CFE0E5F2E080818E7F8083B1
:1016500060817181828193810E94AC0A2FEF80E7C3
:1016600092E0215080409040E1F700C000000C94CF
:10167000FF0A9091500290FF16C090911C0120919A
:101680001D01921770F4E92FF0E0DF01AA0FBB1FD4
:10169000EA0FFB1FEB5AFD4F8183608342839F5FFC
:1016A000F0CF0C94FF0A0895EF92FF920F931F93CF
:1016B000CF93DF9300D01F92CDB7DEB79091500249
:1016C00090FF2CC0E22E142F062FF82EE92FE6955E
:1016D000F0E0E759FE4F80818093BF019E7F9230FA
:1016E00059F49E012F5F3F4F8F2D0E948D0A4B8131
:1016F00069818A810E94390BF09251020093520253
:1017000010935302EE2051F06091500270915102FB
:1017100080915202909153020E94AC0A0F900F9058
:101720000F90DF91CF911F910F91FF90EF9008954F
:10173000E0E5F2E09181282F4381628188E0890F02
:101740000C94540B81E00C94980BE0E5F2E091814D
:10175000282F4381628188EF890F0C94540B81E01C
:101760000C94A50BE0E5F2E0628121E1620F08F440
:101770006FEF282F438181810C94540B81E00C94EE
:10178000B20BE0E5F2E0628121E1621B08F460E067
:10179000282F438181810C94540B81E00C94C10B60
:1017A000E0E5F2E0438121E1420F08F44FEF282FFA
:1017B000628181810C94540B81E00C94D00BE0E5A4
:1017C000F2E0438121E1421B08F440E0282F6281CE
:1017D00081810C94540B81E00C94DF0B20E00C947D
:1017E000540B8091500280FF18C0817082608093FA
:1017F0005002662351F06091500270915102809125
:101800005202909153020E94AC0A4091530260919F
:101810005202809151020C94EE0B0895682F81E0E2
:101820000C94F10B81E00C940E0C682F90915002F7
:1018300096958FEF890F09F481E00C94F10B81E00C
:101840000C94150C61E00C94F10BE0E5F2E0808162
:101850008160808386950C94220C8091500280FDDB
:101860000C94230B0C94250C60E00C94F10B8091EC
:10187000BE0181112CC00E945F1D811104C00E9415
:10188000061E0E94BE0A0E94A80A6093500270932E
:10189000510280935202909353026E7F61F40E9432
:1018A000BE0A0E94A80A609350027093510280936E
:1018B0005202909353020E949D0A8091500280FF31
:1018C00003C086950E94340C81E08093BE01089588
:1018D000882311F0FA0101C0FB0109940F931F93B3
:1018E000CF93FB01C281CC2309F44AC08C010E9432
:1018F000A61C8272F801E35CFC45E431F10508F0B6
:1019000042C0E658FF4F0C94BB260E942D0C3AC0F3
:101910004FE15CE062E17CE004C042E15CE06FE149
:101920007CE00E94680C2EC04FEA5BE062EA7BE03C
:10193000F8CF42EA5BE06FEA7BE0F3CF4DEC5BE08F
:101940006EEB7BE0EECF4EEB5BE06DEC7BE0E9CF46
:101950004BEE5BE06CED7BE0E4CF4CED5BE06BEEDF
:101960007BE0DFCF49EF5AE062EE7AE0DACF42EE79
:101970005AE069EF7AE0D5CF81E00E94220C02C0E4
:10198000C1E001C0C0E08C2FCF911F910F9108954D
:10199000539A2BB1277F3BB138604FB7F894FC01C5
:1019A000CB01880F991F680F791F6E0F7F1FE617F5
:1019B000F70789F0819198E03BB9000000C087FFEC
:1019C0002BB9880F000000C000C000C02BB900C0B8
:1019D0009A9591F7ECCF4FBF8FE594E00197F1F71F
:1019E00000C0000008950F931F93CF93DF93C42F7F
:1019F000D22FFC0182818823C9F04093C3010E9449
:101A0000E31E9093C2018093C10180E28C0F883065
:101A100008F057C0C77081E001C0880FCA95EAF787
:101A2000DF91CF911F910F910C9447148091C301C6
:101A3000481330C08091C1019091C2010E94FB1EE9
:101A4000843B910538F510E21D0FCD17B9F080E207
:101A50008C0F883040F4C77081E001C0880FCA95B0
:101A6000EAF70E944E14183028F581E09D2F9770F8
:101A700001C0880F9A95EAF70E944714802F0E94B0
:101A80003E141830F0F4D77081E001C0880FDA9569
:101A9000EAF70AC080E28C0F883098F4C77081E0C2
:101AA00001C0880FCA95EAF7DF91CF911F910F917E
:101AB0000C944E14802FDF91CF911F910F910C94B5
:101AC0003E14DF91CF911F910F9108950F939C01C8
:101AD000CB01243F4CE5340731F188F4293DFCE586
:101AE0003F07D9F02A3D4CE5340779F1283D3C45C4
:101AF000A9F506E221EE41EE68ED7CE52BC0263F1C
:101B0000FCE53F07E1F0A8F0273F3C4539F507E247
:101B100025EE46EE67EF7CE51DC007E225EE45EEBB
:101B200069ED7CE517C006E221EE40EE64EF7CE54E
:101B300011C007E225EE44EE65EF7CE50BC006E23E
:101B400021EE42EE66EF7CE505C008E221E045EEBD
:101B50006AED7CE50E94F30C80E008C0FC01828104
:101B6000882319F01092C30101C081E00F910895FC
:101B7000CF93DF93EC01FB018281882309F41FC11D
:101B8000C230FCE5DF0708F41BC1C6319CE5D9076C
:101B900038F09E012B5F3C452930310508F010C11B
:101BA0000E94721D9093750280937402C031ECE51F
:101BB000DE0709F4C3C008F041C0C8308CE5D8077F
:101BC00009F49AC0F0F4C430ECE5DE0709F487C0EC
:101BD00068F4C2308CE5D80709F477C0C330DC451F
:101BE00009F0E3C080917402826076C0C630ECE5F3
:101BF000DE0709F46EC008F07BC080917402886033
:101C00006BC0CC308CE5D80709F485C068F4CA30C5
:101C1000ECE5DE0709F474C008F079C00E94D41620
:101C200080917402806858C0CE308CE5D80709F4E2
:101C300076C008F07FC0809174028BC0CC3FECE589
:101C4000DE0709F44FC018F5C3318CE5D80709F455
:101C50007DC078F4C131ECE5DE0709F473C0C23110
:101C6000DC4509F0A2C00E94D416809174028F77DF
:101C700033C0C5318CE5D80709F472C008F486C0BA
:101C8000CB3FDC4509F091C0809175023EC0C11583
:101C9000FDE5DF0709F45FC058F4CE3F9CE5D907A6
:101CA00009F444C008F43FC08091750282602DC0E1
:101CB000C230FDE5DF0709F475C008F45DC0C3302C
:101CC000DD4509F072C080E06EC0809174028160D1
:101CD00003C08091740280618093740266C0809119
:101CE000740211C0809175028260809375025DC09C
:101CF000809174028062F0CF809174028064ECCF96
:101D00008091740288608460E7CF8160EECF80911B
:101D100074028E7FE1CF809174028D7FDDCF809140
:101D20007402877FD9CF8091750218C080917502A7
:101D30008D7FDBCF809174028F7ECECF8091740235
:101D40008F7DCACF809174028F7BC6CF8091740241
:101D5000877F8B7FC1CF809175028D7F8E7FC5CFAE
:101D60008091740282FB222720F991E0922790FB58
:101D700082F990FB83F9B0CF80917502982F9095EE
:101D800091708E7F892B90FB81F9AFCF0E94D41682
:101D90008091740287FB222720F991E0922790FB23
:101DA00087F99ACF81E00E94081E80917402909179
:101DB00075020E94831D0E94D41680E001C081E05C
:101DC000DF91CF910895CF93DF9386319C4541F504
:101DD000EB010E94A61C982F8A812091200130914E
:101DE0002101882379F09A7A81E009F480E08093D8
:101DF000C401911102C069E201C065E3C9010E94FA
:101E00004F1E0AC08091C401811102C069E201C065
:101E100065E3C9010E94511E0E94F41C80E001C0CC
:101E200081E0DF91CF91089589509D4580329105E1
:101E300060F5FB012281FC0133E0F695E7953A95C8
:101E4000E1F787709927EB53FE4F222361F021E0E1
:101E500030E0A90102C0440F551F8A95E2F7CA017C
:101E60009081892B0CC021E030E0A90102C0440F11
:101E7000551F8A95E2F7CA01809590818923808356
:101E80008091CB0182608093CB0181E008950E9414
:101E9000140F882369F08091CB0181FF09C085EC84
:101EA00091E00E9407208091CB018D7F8093CB0130
:101EB00081E00895E82FE295EF70F0E022A1482F2D
:101EC0004F7091A130E0042E02C0359527950A94F9
:101ED000E2F721703327220F331F892F90E002C0D1
:101EE000959587954A95E2F781709927822B932BD8
:101EF0000895E82FE295EF70F0E092A18F7021E055
:101F000030E0082E01C0220F0A94EAF7209561FB09
:101F1000442740F9082E01C0440F0A94EAF792239F
:101F2000492B42A391A16170772701C0660F8A9562
:101F3000EAF72923622B61A308952F923F924F92D3
:101F40005F926F927F928F929F92AF92BF92CF9249
:101F5000DF92EF92FF920F931F93CF93DF9300D006
:101F600000D0CDB7DEB740E051E05C834B8385EC19
:101F7000E82E81E0F82E01E010E0EB81FC81818108
:101F80008F3F09F431C10E945A0F9A838983EB81F4
:101F9000FC818181E82FE295EF70F0E092A18F70D3
:101FA000980101C0220F8A95EAF7822F8095892334
:101FB00082A3EB81FC818181E82FE295EF70F0E054
:101FC00021A18F70A80102C0440F551F8A95E2F726
:101FD000CA01822B81A355E35A95F1F70000EB81EA
:101FE000FC8180818F3F41F10E945A0F6C01EB818F
:101FF000FC818081E82FE295EF70F0E021A18F70E5
:10200000A80102C0440F551F8A95E2F7CA01822B2E
:1020100081A3EB81FC818081E82FE295EF70F0E0F5
:1020200022A18F70A80102C0440F551F8A95E2F7C4
:10203000CA01822B82A302C0C12CD12CEB81FC816E
:1020400082818F3F41F10E945A0F1C01EB81FC817C
:102050008281E82FE295EF70F0E021A18F70A80156
:1020600002C0440F551F8A95E2F7CA01822B81A353
:10207000EB81FC818281E82FE295EF70F0E092A184
:102080008F70980101C0220F8A95EAF7822F809500
:10209000892382A302C0212C312CF5E3FA95F1F7B4
:1020A0000000EB81FC818181E82FE295EF70F0E088
:1020B00091A18F70980101C0220F8A95EAF7822FB3
:1020C0008095892381A3EB81FC818181E82FE295B2
:1020D000EF70F0E092A18F70980101C0220F8A95F5
:1020E000EAF7822F8095892382A3F5E3FA95F1F729
:1020F0000000EB81FC8181810E948611EB81FC81D3
:1021000045805680612C712C4C01990FAA08BB08A0
:1021100084189508A608B708A1E8BFEFA5019401A7
:102120000E94CF262381348140E050E024193509F4
:10213000460957090E949C26121613061406150616
:10214000ACF4AFE7B0E0A50194010E94C126EB8199
:10215000FC81278130854901A12CB12CA501940176
:1021600024193509460957090E949C26DA01C9013C
:1021700021383F4F4F4F5F4F24F481E89FEFAFEF7F
:10218000BFEF80389105A105B10524F08FE790E0FD
:10219000A0E0B0E0F70142815381052E000C660BF0
:1021A000770B84179507A607B70739F093838283C7
:1021B0008091CB0182608093CB01EB81FC81808197
:1021C0008F3F19F0B6010E94790FEB81FC8182816B
:1021D0008F3F19F0B1010E94790F69817A81EB81FB
:1021E000FC8181810E94790F4B815C81475F5F4F49
:1021F0005C834B8352E0E50EF11C8B819C81825104
:10220000914009F0BACE81E00F900F900F900F909F
:10221000DF91CF911F910F91FF90EF90DF90CF90C2
:10222000BF90AF909F908F907F906F905F904F90F6
:102230003F902F9008950C949D0F0E941B118823AE
:1022400069F08091CB0181FF09C085EC91E00E948B
:1022500007208091CB018D7F8093CB010895873932
:1022600041F178F4863349F130F4843321F1853338
:1022700031F584E208958439D1F0863901F581E29F
:102280000895843F71F030F4803FD9F0813FB9F474
:1022900081E00895863F49F030F0873F81F487E080
:1022A000089584E0089585E0089586E0089580E229
:1022B000089582E2089583E2089585E208958FE10A
:1022C000089580E0089596E890937A00982F907290
:1022D000906890937B008F7190911F01892B809360
:1022E0007C0080917A00806480937A0080917A00EB
:1022F00086FDFCCF809178002091790090917A0042
:102300009F7790937A0090E0922B08950E942F116E
:102310000C9463119093D1018093D0010895E091C2
:10232000D001F091D101309721F00190F081E02DA2
:10233000099480E00895E091D001F091D1013097A7
:1023400021F00280F381E02D09940895E091D001FD
:10235000F091D101309739F022E0DC012C93048018
:10236000F581E02D099408952091CE013091CF019F
:102370002817390771F09093CF018093CE01E09137
:10238000D001F091D101309721F00680F781E02D46
:10239000099408952091CC013091CD012817390777
:1023A00071F09093CD018093CC01E091D001F09138
:1023B000D101309721F00084F185E02D0994089532
:1023C0000E94EF1E6093DB017093DC018093DD01BE
:1023D0009093DE016093D7017093D8018093D90167
:1023E0009093DA01089585B7806885BF85B78068C6
:1023F00085BF089581E008950C94FA1108950C9416
:10240000FE110C94FE110C9401120C94FE110C940C
:1024100005120C94FE110E94F31187E59DE10E94C4
:10242000411F0E9409120C9407120E94DA1E0E949A
:102430006E060E945C1F0E94370C0C9403126F9270
:102440007F928F929F92AF92BF92CF92DF92EF9244
:10245000FF920F931F93CF93DF93CDB7DEB72A97E9
:102460000FB6F894DEBF0FBECDBF0E94FF110E94D1
:10247000FE110E94960681110E94E01133ED832E19
:1024800031E0932E00E010E0C02E802F0E943C0629
:102490005C01F401619071904F0168267926611406
:1024A0007104B1F40F5F1F4F0230110569F78FEF10
:1024B00089838A831B820E94E31E8160782F9D831B
:1024C0008C8349815A816B818D810E94DB123AC0D5
:1024D00080913C0281FD0E944506D12CEE24E394BC
:1024E000F12CC3018E219F21892B29F10E94FC111F
:1024F0008823A9F0DE82CF82AE20BF2081E0AB2806
:1025000009F480E088870E94E31E8160782F9A8713
:1025100089874E815F8168858A850E94DB12000F62
:10252000111FF801ED52FE4F80819181E826F926B6
:10253000F182E08207C0D394EE0CFF1CF9E0DF12B9
:10254000D0CFB0CF0E94D5080E941D110E948F11DC
:102550009091D2018917D1F00E948F118093D201FE
:102560002A960FB6F894DEBF0FBECDBFDF91CF9194
:102570001F910F91FF90EF90DF90CF90BF90AF90A1
:102580009F908F907F906F900C9425042A960FB6A1
:10259000F894DEBF0FBECDBFDF91CF911F910F9199
:1025A000FF90EF90DF90CF90BF90AF909F908F9073
:1025B0007F906F900895DF92EF92FF920F931F9399
:1025C000CF93DF93CDB7DEB72B970FB6F894DEBF6E
:1025D0000FBECDBFF42E052F162FE72ED82E61117A
:1025E0000E94C61CFE01319686E0DF011D928A958D
:1025F000E9F77E2D4F2D502F612F8D2D9E810E944A
:1026000073192B960FB6F894DEBF0FBECDBFDF91C6
:10261000CF911F910F91FF90EF90DF900895FC01F3
:10262000808191810E94671C0895CF93882309F4CB
:10263000A4C0C82F8238C1F40E948F1181FD9DC0B3
:1026400069E380912001909121010E944F1E0E9418
:10265000F41C2FEF81EE94E0215080409040E1F790
:1026600000C0000069E319C0833801F50E948F1192
:1026700080FD83C063E580912001909121010E943B
:102680004F1E0E94F41C2FEF81EE94E021508040F9
:102690009040E1F700C0000063E580912001909137
:1026A00021010E94511ECF910C94F41C8438C1F476
:1026B0000E948F1182FD61C067E48091200190919A
:1026C00021010E944F1E0E94F41C2FEF81EE94E026
:1026D000215080409040E1F700C0000067E4DDCF6A
:1026E0008CEF8C0F813AD0F46C2F80912001909167
:1026F00021010E94191E882349F06C2F809120012E
:10270000909121010E94511E0E94F41C6C2F809117
:102710002001909121010E944F1EC5CF80E28C0FB5
:10272000883048F4C77081E001C0880FCA95EAF785
:102730000E94A91CB8CFEBE5EC0FE33040F4F0E0C9
:10274000E756FE4F808190E0CF910C94B411E8E5FC
:10275000EC0FE73150F4F0E0EE0FFF1FE559FE4FAC
:1027600080819181CF910C94CA11CD3E30F08C2F95
:102770000E94E507CF910C94B708CF910895882364
:1027800009F464C0823879F40E948F1181FF5EC021
:1027900069E380912001909121010E944F1E0E94C7
:1027A000F41C69E310C08338B1F40E948F1180FFDC
:1027B0004DC063E580912001909121010E944F1E40
:1027C0000E94F41C63E580912001909121010E94F8
:1027D000511E0C94F41C843879F40E948F1182FFEE
:1027E00035C067E480912001909121010E944F1E25
:1027F0000E94F41C67E4E7CF9CEF980F913A10F425
:10280000682FE1CF90E2980F983050F4877091E0F4
:1028100001C0990F8A95EAF7892F0E94AF1CD9CF82
:102820009BE5980F933020F480E090E00C94B41175
:1028300098E5980F973120F480E090E00C94CA114D
:102840008D3E20F00E9440080C94B70808951F9315
:10285000CF93DF93182FEB010E941513209741F0BF
:102860008FE99FE00197F1F700C000002197F6CFB4
:10287000812FDF91CF911F910C94BF13893319F0F1
:1028800060E070E002C060E570E00C9427148823DB
:1028900021F00E94A91C0C94F41C0895882321F0B7
:1028A0000E94AF1C0C94F41C0895CF92DF92EF921B
:1028B000FF920F931F93CF93DF937C01062FC72FB7
:1028C000FC01D281158112951F700E949F1C8823E4
:1028D00099F0DD2389F08C2F807F803421F080E215
:1028E000800F883048F082E00E943E1D0E949F1CAD
:1028F00091E0D82ED92601C0D12CCC2EC2948FE0E5
:10290000C8228C2D90E0FC01E257FF4F0C94BB26AF
:102910008C2F807FCF70882311F0C295C07FDD237C
:1029200099F0CC2309F48DC180E2800F883010F03B
:10293000011104C08C2F0E94A91C03C08C2F0E947F
:10294000B91C0E94F41C7DC1802F0E94BF13CC23B0
:1029500009F49CC180E2800F883010F0011104C09E
:102960008C2F0E94AF1C03C08C2F0E94BF1C0E94A2
:10297000F41C8CC18C2F807FCF70803211F0C295F7
:10298000C07F002319F00130C9F022C0DD2371F0AF
:10299000112341F0113031F40E94D91C8C2B0E947C
:1029A000E11C74C10E94D91C8C2B1DC0112319F08D
:1029B000113009F46BC10E94EA1C25C0DD2321F00F
:1029C000163008F063C10EC0153008F05FC11BC09F
:1029D000DD2361F0112331F0F701858180FF31C1E2
:1029E0008F7085838C2F0E94471450C1112359F09A
:1029F000093309F037C1FFEF27EE83E0F1502040A3
:102A00008040E1F72DC18C2F0E944E143FC18C2FC6
:102A100086958695837019F0813061F037C1DD238A
:102A200021F0802F9C2F937002C080E090E00E94E4
:102A3000B41134C1DD2321F0802F9C2F937002C08C
:102A400080E090E00E94CA1129C1802FDD2319F097
:102A50000E94E50702C00E9440080E94B7081EC1FC
:102A60008C2F837009F045C0D11114C1402F4295BD
:102A700046954770440F440F602F6F70862F90E08B
:102A8000A0E0B0E0042E04C0880F991FAA1FBB1F4E
:102A90000A94D2F704FF10C00FE010E020E030E00D
:102AA00004C0000F111F221F331F4A95D2F7009553
:102AB00010952095309503C000E010E09801C69570
:102AC000C695C370BC01CD01602B712B822B932B5B
:102AD000C23049F058F4C13019F00E94C41ADAC06B
:102AE0000E94B21AD7C00E94D61AD4C00E94B01A4F
:102AF000D1C0DD2319F08C2F817001C08695882309
:102B000009F4C8C0402F429546954770440F440FC2
:102B1000602F6F70862F90E0A0E0B0E0042E04C01C
:102B2000880F991FAA1FBB1F0A94D2F704FF10C079
:102B30000FE010E020E030E004C0000F111F221F62
:102B4000331F4A95D2F7009510952095309503C014
:102B500000E010E09801C695C695C370BC01CD0198
:102B6000602B712B822B932BC23049F058F4C1306B
:102B700019F00E94A91B8EC00E94971B8BC00E9457
:102B8000BB1B88C00E94EA1A85C0CF70DD2339F0D4
:102B90008C2F0E94301B802F0E9447147BC0802FF7
:102BA0000E944E148C2F0E94511B74C0023F01F1F1
:102BB00028F4003F41F0013FA1F03FC0033FF9F08E
:102BC000043F39F13AC0DD2341F0153008F05EC012
:102BD0008C2F8F710E94761B59C0163008F056C09A
:102BE000F7CFDD2339F08C2F8F710E94301B4EC040
:102BF000DD23C9F38C2F8F710E94511B47C0DD2349
:102C000029F08C2F8F710E941B1B40C00E94F61A66
:102C10003DC0DD2349F0CF718C2F0E94301B63E053
:102C20008C2F0E94291D32C081E00E943E1D12306F
:102C300068F182E00E943E1D29C0DD2331F011239E
:102C400091F2802F0E94151321C0112399F20933AC
:102C500049F49FEFE7EEF3E09150E040F040E1F7F8
:102C600000C00000802F0E94BF1310C04C2F4F7077
:102C7000602FC7010E942E040E94211A0FC04C2F02
:102C80004F70602FC7010E94310408C088EF8C0D7F
:102C9000843020F40E948F110E942504DD20C9F0A9
:102CA0000E949B1C80FD15C0F70112820E94951C9A
:102CB0000E94301BC7010E948A160E94951CDF915A
:102CC000CF911F910F91FF90EF90DF90CF900C94D8
:102CD000511BDF91CF911F910F91FF90EF90DF90EB
:102CE000CF9008950F931F93CF93DF93EC016881EA
:102CF00079818A810E94721C8C010E94CD1B0E94E6
:102D00009E1AB801CE010E945514DF91CF911F91F8
:102D10000F910895CF93DF93EC01988189812B81E6
:102D20003C81232B31F08F3F31F481E09F3F19F438
:102D300003C081E001C080E080FD19C0CE010E9487
:102D4000D50381110CC00E949F1C882381F08A81C9
:102D5000882369F082E0DF91CF910C943E1DCE0173
:102D60000E947216CE01DF91CF910C94AE03DF91D9
:102D7000CF91089580E090E00E94B41180E090E04F
:102D80000E94CA110E94C61C0E94D61C0E94F41CFC
:102D90000E94E8090C94B7088091200190912101CC
:102DA0000E94531E0C94BA160E94B61C0C94CC16AA
:102DB000E92FE295EF704E2F50E0FA013297EE3096
:102DC000F105B0F4E256FF4F0C94BB26803F91F022
:102DD00018F4883E68F40EC0843F51F40BC0883E5E
:102DE00048F0813F29F406C093FB882780F90895B5
:102DF00080E0089581E008950E94671C0E94D81623
:102E00000895CF93DF9300D000D01F92CDB7DEB7E7
:102E10000F900F900F900F900F90DF91CF9108952A
:102E2000CF93DF9300D000D000D0CDB7DEB7269689
:102E30000FB6F894DEBF0FBECDBFDF91CF910895DE
:102E40001F93CF93DF93C091E00116E08091E101E1
:102E5000C81799F0D0E01C9FF0011D9FF00D1124C0
:102E6000EE51FE4F40815181628173818481958151
:102E70000E9410172196C770E9CFDF91CF911F9163
:102E800008954091120250911302609114027091C2
:102E9000150280911602909117020C9410170F934F
:102EA0001F93CF93DF938091170282958F7009F063
:102EB0005DC080911402882309F458C08091E0011C
:102EC0001091E1016091120270911302C0911502FC
:102ED000D091160291E06F3F09F090E0292F06E0B3
:102EE000811709F443C0209721F07F3F21F030E0A3
:102EF00003C031E001C0322F90E030FD34C0089FA4
:102F0000F001099FF00D1124DF01AE51BE4F119663
:102F10003C911197371327C03C91361324C0129669
:102F20003C91129731111FC013964D915C911497EB
:102F30004C1B5D0B443B5105B0F4809117028F7020
:102F4000806180931702E951FE4F80818F7080610C
:102F5000808382E192E00E948A16DF91CF911F91D7
:102F60000F910C94201701968770BACFDF91CF9103
:102F70001F910F9108959F92AF92BF92CF92DF92CF
:102F8000EF92FF920F931F93CF93DF93CDB7DEB7EE
:102F900061970FB6F894DEBF0FBECDBF8C0185E000
:102FA000F801DE011D9601900D928A95E1F7F80176
:102FB00040815181E2809091120260911302209130
:102FC0001502309116022115310531F06F3F31F4B1
:102FD00081E09F3F19F403C081E001C080E0F82F39
:102FE000F1709F2E80FD2CC1F801A380B48082E196
:102FF000C82E82E0D82EF0901402F501E21BF30BEC
:10300000FF2009F4EBC080911702E43BF10508F0C2
:10301000A7C0282F207F09F052C0561313C04913B0
:1030200011C0FE2CE1100EC08F70806180931702DA
:103030000E944117C6010E948A1680911702F8016A
:1030400085833EC1AB2831F05F3F31F481E04F3FD3
:1030500019F403C081E001C080E080FD03C081E07D
:103060008E2502C080E090E0F82FF170FF2E80FFE7
:103070001CC08091E0012091E10136E0821709F443
:10308000FDC090E0389FF001399FF00D1124EE5102
:10309000FE4F6181561306C06081461303C06281F2
:1030A000E61203C001968770E9CFFE2CEE2009F4EA
:1030B00007C18091170281608093170266C0561382
:1030C00012C0491310C0E1100EC0F8018583C80179
:1030D0000E948A1686E0F801A2E1B2E001900D920A
:1030E0008A95E1F7C8C04D875E878D859E850E94D1
:1030F000FC16882379F1EE2069F120911702822FC6
:1031000082958F7090E0029774F0809112029091F6
:10311000130298878F831986BB86AA862C87CE01D7
:1031200007960E948A1686E0F801A2E1B2E00190BB
:103130000D928A95E1F70E944F170E9441170DC02A
:10314000561729F14D875E878D859E850E94FC1656
:1031500081112CC0C8010E948A16FF24F394B0C0CC
:10316000282F207F69F77A2DB98AA88A6E2D898940
:103170000E94011782E192E00E948A1686E0F60121
:1031800011928A95E9F70E944117F12C99C04913D1
:10319000D9CFE110D7CFF8018583C8010E948A16E4
:1031A00086E0F60111928A95E9F78AC0EE2091F245
:1031B00020911702822F82958F7090E002970CF475
:1031C000B2CF80911202909113029A8389831B825D
:1031D000BD82AC822E83CE010196A3CFE43BF105E4
:1031E00010F5FE2CEE2009F4B5CF56130BC0491391
:1031F00009C086E0F801A2E1B2E001900D928A9543
:10320000E1F75EC04D875E878D859E850E94FC1626
:10321000811189CF80911702816080931702C801C4
:103220000E948A164DC07A2DB98AA88A6E2D898986
:103230000E94011786E0F60111928A95E9F71BC0FA
:10324000EE2009F487CF4D875E878D859E850E948D
:10325000FC16F82E882309F47DCF86E0F801A2E160
:10326000B2E001900D928A95E1F782E192E00E942E
:103270000F130E944F170E94411722C04D875E878F
:103280008D859E850E94671C292F22952F702230E4
:1032900028F49F7039F0811105C00BC0243028F448
:1032A0009F7049F4805E883020F0C8010E948A1621
:1032B0009F2CF92C05C0F8019581907F99F7F9CFE3
:1032C0008F2D61960FB6F894DEBF0FBECDBFDF9194
:1032D000CF911F910F91FF90EF90DF90CF90BF9013
:1032E000AF909F9008951F93CF93DF93CDB7DEB734
:1032F0002C970FB6F894DEBF0FBECDBF4F83588713
:1033000069877A878B879C87CE0107960E94BB17B7
:103310008823D1F09F8188852A853B85232B31F036
:103320008F3F31F481E09F3F19F403C081E001C079
:1033300080E080FD47C04F81588569857A858B85FF
:103340009C850E9410173EC086E0FE013796DE0184
:10335000119601900D928A95E1F7FF81E8856A85C3
:103360007B856115710531F0EF3F31F481E0FF3F5E
:1033700019F403C081E001C080E080FD23C02091EA
:10338000E10130E0C9010196877099274091E00181
:1033900050E084179507F1F1F983EA837D836C830C
:1033A00096E0929FD001939FB00D1124AE51BE4F75
:1033B000FE01319601900D929A95E1F78093E1011B
:1033C0000E94201716E08091E0019091E101891799
:1033D00071F1189FC00111248E519E4F0E94BB179E
:1033E000882329F1E091E0011E9FF0011124EE51A4
:1033F000FE4F4081518162817381848195810E9459
:1034000010178091E00190E00196877099278093D2
:10341000E001D9CF0E94D4161092E1011092E00190
:10342000E2E1F2E086E0DF011D928A95E9F72C9651
:103430000FB6F894DEBF0FBECDBFDF91CF911F91C5
:103440000895EF92FF920F931F93CF93DF938C0118
:10345000892B09F46CC0F12CEE24E394E801219649
:10346000F8018491843740F4843008F051C08130F1
:1034700081F0823019F15BC0853709F444C0A8F1AE
:103480009CE7980F903708F052C08F770E94BF13C7
:1034900041C00E5F1F4FFE01849190E2980F98305B
:1034A00050F48770FE2D01C0FF0F8A95EAF78F2F29
:1034B0000E94C91C14C00E9415132DC00E5F1F4F1F
:1034C000FE01849190E2980F983060F48770FE2D91
:1034D00001C0FF0F8A95EAF78F2F0E94CF1C0E9430
:1034E000F41C19C00E94BF1316C00E5F1F4FFE01CF
:1034F000C491CC2381F08FE99FE00197F1F700C0E0
:103500000000C150F6CF0E5F1F4FFE01F49003C0C4
:103510000E9415138E018F2D882309F49FCFEFE9A8
:10352000FFE03197F1F700C000008150F5CFDF9147
:10353000CF911F910F91FF90EF90089508950895F6
:103540000C949F1A0C94A01A0E94A21A60932B024A
:1035500070932C0280932D0290932E020C94BA1635
:103560000C94A41A0F931F9300912B0210912C021C
:1035700020912D0230912E02602B712B822B932BE8
:103580001F910F910C94A41A0F931F9300912B027B
:1035900010912C0220912D0230912E026023712374
:1035A000822393231F910F910C94A41A0F931F93BE
:1035B00000912B0210912C0220912D0230912E02AD
:1035C00060277127822793271F910F910C94A41ACB
:1035D0000C949F1A0E94E81A6093270270932802A5
:1035E0008093290290932A020C94BA1660E070E04E
:1035F000CB010C94EA1A611571058105910529F436
:1036000081E0442361F080E00895DC01CB0104C037
:10361000B695A795979587954A95D2F781700895A5
:10362000482F609127027091280280912902909181
:103630002A020C94FB1A0F931F9341E050E060E0C4
:1036400070E08A019B0104C0000F111F221F331F6D
:103650008A95D2F7C901B8011F910F910C94EA1A0B
:103660000F931F9341E050E060E070E004C0440F0E
:10367000551F661F771F8A95D2F780912702909178
:103680002802A0912902B0912A028A019B01082BED
:10369000192B2A2B3B2BC901B8011F910F910C94B8
:1036A000EA1A0F931F9341E050E060E070E004C01D
:1036B000440F551F661F771F8A95D2F74095509586
:1036C000609570958091270290912802A09129021F
:1036D000B0912A028A019B01082319232A233B2344
:1036E000C901B8011F910F910C94EA1A0F931F930F
:1036F00041E050E060E070E004C0440F551F661FD9
:10370000771F8A95D2F78091270290912802A09185
:103710002902B0912A028A019B01082719272A272A
:103720003B27C901B8011F910F910C94EA1A0F931E
:103730001F930091270210912802209129023091B5
:103740002A02602B712B822B932B1F910F910C94CB
:10375000EA1A0F931F9300912702109128022091DB
:10376000290230912A0260237123822393231F911F
:103770000F910C94EA1A0F931F9300912702109156
:1037800028022091290230912A026027712782277E
:1037900093271F910F910C94EA1A089529E0929FA4
:1037A000800D1124E82FE695E695E695877051E0A7
:1037B00001C0550F8A95EAF785E0E89FF0011124D2
:1037C000E85EFD4F20E030E070E04081CB01022E4A
:1037D00002C0969587950A94E2F7817081958427B7
:1037E0008523842781932F5F3F4F2530310569F76B
:1037F000089529E0929F800D1124682F66956695A3
:103800006695982F977085E0689FB001112440E07D
:1038100050E080E0FB01E40FF51FE85EFD4F2081E2
:1038200030E0092E02C0369527950A94E2F7217000
:103830003327042E01C0220F0A94EAF7822B4F5F30
:103840005F4F4530510531F70895BF92CF92DF9217
:10385000EF92FF920F931F93CF93DF938C01C09051
:103860002702D0902802E0902902F0902A0280914D
:103870002B0290912C02A0912D02B0912E02C82A09
:10388000D92AEA2AFB2ACFE1D0E0D701C6010C2EC3
:1038900004C0B695A795979587950A94D2F780FDB1
:1038A00004C0219790F7B12C07C0BC2EB8018C2F13
:1038B0000E944D040197A9F38B2DDF91CF911F91A9
:1038C0000F91FF90EF90DF90CF90BF900895CF932E
:1038D000DF93EC010E94251CBE010E944D04DF9184
:1038E000CF9108951F93CF93DF93EB019091DF0168
:1038F000992321F0CB010E94671C13C0882349F053
:10390000CB010E94251C182F682FCE010E94CE1BD0
:1039100004C0CB010E94F91B182FBE01812F0E9409
:103920004D04DF91CF911F91089580912F028595CD
:1039300085958595089580912F02877008959091BF
:103940002F02977081E009F480E0089580913B0296
:10395000089590913B02892B80933B0208958095B6
:1039600090913B02892380933B02089510923B0281
:10397000089590913A02892B80933A020895809598
:1039800090913A02892380933A02089510923A0264
:10399000089590913902892B80933902089580957A
:1039A0009091390289238093390208951092390247
:1039B000089580913002089508950C94DC1C0C94B5
:1039C000DD1C90913002981721F0809330020C9406
:1039D000DF1C089580913002882329F01092300274
:1039E00080E00C94DF1C0895E0912001F09121010A
:1039F00080913B028083E0912001F0912101908130
:103A000080913A02892B8083E0912001F09121017D
:103A1000908180913902892B8083809130028823A4
:103A200081F0E0912001F09121019081892B808328
:103A300080912001909121010E940D1E81110E9410
:103A4000EA1C80912001909121010C949B110C940F
:103A5000DC1C98E0899F90011124262B20932F02D3
:103A60000E94301B80912F028595859585950C9439
:103A7000271D10922F0280E00C94271D20912F0209
:103A80008095822380932F02982F977079F430E0ED
:103A9000482F082E000C550B2417350739F0859553
:103AA000859585950E94511B0C94391D089580E0E1
:103AB00008956FEF7FEF80E090E00C94372780E06F
:103AC00090E00E94132721E08B3E9E4F09F020E0FA
:103AD000822F089582E090E00C94052783E090E027
:103AE0000C940527CF9384E090E00E940527C82F0F
:103AF00081E290E00E9405272C2F30E0A901582B8D
:103B0000CA01CF910895CF93C92F682F84E090E028
:103B10000E9419276C2F81E290E0CF910C94192715
:103B2000AB01BC018FE090E00C942B27AB01BC01F2
:103B300083E190E00C942B2760E070E0CB010C94C3
:103B4000961D60E070E0CB010E94901D0C949C1DBE
:103B50006BEE7EEF80E090E00E94372760E082E02D
:103B600090E00E94192760E083E090E00E9419270E
:103B700010922B0210922C0210922D0210922E0203
:103B800060E084E090E00E94192760E081E290E02C
:103B90000E94192760E085E090E00E94192760E00C
:103BA00086E090E00E9419276FEF87E090E00E9486
:103BB000192740E050E0BA0188E090E00E942B27EE
:103BC00060E08DE090E00E94192740E050E0BA01EB
:103BD00088E190E00E942B2760E087E190E00E945E
:103BE000192740E050E0BA018CE190E00E942B27B9
:103BF00060E080E290E00E94192740E050E0BA01C6
:103C000088E190E00E942B270C94A11D0C94A81D24
:103C1000682F8EE090E00C941927FC01329697E013
:103C200080E0915029F021912223D9F38F5FF9CFC1
:103C30000895662349F0FC01329608962191621797
:103C400029F0E817F907D1F780E0089581E0089599
:103C50009C01FC0132969FEF80E04191461789F06C
:103C60009F3F19F4411101C0982F8F5F8630A9F74B
:103C70009F3F39F0F901E90FF11D97FDFA95628335
:103C8000089508959C012A5F3F4FFC01428146132D
:103C900001C01282019682179307B9F708950C9418
:103CA000281E0C94421E029626E0FC0111922A95D1
:103CB000E9F7089508950C945A1E0C945A1E0E9418
:103CC0005D1E0E9496060E945B1E80E00E943C06DC
:103CD000892B41F481E00E943C0621E0892B19F4F4
:103CE00020E001C021E0822F08950C945A1E0C940C
:103CF000751E80917A02843049F10E94771E80E01F
:103D00000E94250410923D0220E488E190E00FB665
:103D1000F894A895809360000FBE2093600083B74D
:103D2000817F846083BF83B7816083BF78948895E7
:103D300083B78E7F83BF0FB6F894A89580916000FB
:103D4000886180936000109260000FBE08950C940B
:103D50005A1E0E94D4160E948F110E9425040C94B2
:103D6000A71E1F920F920FB60F9211248F939F934D
:103D7000AF93BF9380913D02811113C08091700277
:103D800090917102A0917202B09173024196A11DAF
:103D9000B11D8093700290937102A0937202B09350
:103DA0007302BF91AF919F918F910F900FBE0F90B3
:103DB0001F90189582E084BD93E095BD9AEF97BD62
:103DC00080936E0008952FB7F894809170029091BF
:103DD0007102A0917202B09173022FBF08952FB7A4
:103DE000F8946091700270917102809172029091CA
:103DF00073022FBF08959C014FB7F8948091700211
:103E000090917102A0917202B09173024FBF821B18
:103E1000930B089578941F920F920FB60F9211246E
:103E20008F939F93AF93BF93809170029091710293
:103E3000A0917202B09173020196A11DB11D8093F1
:103E4000700290937102A0937202B0937302BF91BB
:103E5000AF919F918F910F900FBE0F901F9018956B
:103E600087E797E790930108809300089AE088E13C
:103E70000FB6F894A895809360000FBE90936000F1
:103E8000FFCF9093AD018093AC0108950C94591D20
:103E90000E9496068FE39CE90197F1F700C00000AD
:103EA0000E94960680E00E943C0680FF04C00E94AB
:103EB000461F0C94301F08950E945F1D811102C09F
:103EC0000E94061E0E946A1D80933C020E94721D81
:103ED00090937502809374020E946E1D682F70E0AB
:103EE00080E090E00E94B01A609127027091280251
:103EF0008091290290912A020C94E81A809146023E
:103F00000895CF93DF9300D01F92CDB7DEB7909185
:103F10007A02943019F589837B836A8382E08093E7
:103F2000E9008FEF9091E800815095FD06C095ED76
:103F30009A95F1F700008111F5CF8091E80085FF97
:103F40000DC040E050E063E070E0CE0101960E94B9
:103F5000D6218091E8008E778093E8000F900F9033
:103F60000F90DF91CF910895BC0184E00C94811FE4
:103F7000BC0183E00C94811F22E02093E9002FEF25
:103F80003091E800215035FD06C035ED3A95F1F746
:103F900000002111F5CF2091E80025FF0BC040E083
:103FA00050E066E070E00E94D6218091E8008E77B4
:103FB0008093E8000895CF93DF9321E02093E900F8
:103FC0002FEF3091E800215035FD06C035ED3A95D0
:103FD000F1F700002111F5CF2091E80025FF14C072
:103FE000EC0140E050E068E070E00E94D621809152
:103FF000E8008E778093E80088E0FE01AEE3B2E04F
:1040000001900D928A95E1F7DF91CF910895CF93BA
:10401000DF9300D000D0CDB7DEB7FC018281898369
:1040200084818A8380818B8381818C8383E08093E8
:10403000E9008FEF9091E800815095FD06C095ED65
:104040009A95F1F700008111F5CF8091E80085FF86
:104050000DC040E050E064E070E0CE0101960E94A7
:10406000D6218091E8008E778093E8000F900F9022
:104070000F900F90DF91CF91089580917902811177
:1040800009C00E9467230E94C4238091E2008460DB
:104090008093E2000895109279020895089508959A
:1040A000089542E061EC81E00E94E02242E261EC8E
:1040B00082E00E94E02242E061EC83E00C94E02286
:1040C00080917C02833009F460C030F4813071F05B
:1040D000823009F499C008958A3009F485C08B3084
:1040E00009F46BC0893009F0A7C020C080917B0221
:1040F000813A09F0A1C08091E800877F8093E800B1
:1041000080917F0290918002892B21F468E08EE3F8
:1041100092E003C060E080E090E070E00E94212225
:104120008091E8008B778093E800089580917B026E
:10413000813209F081C080917F02909180020297C4
:1041400008F07AC08091E800877F8093E800809132
:10415000E80082FD05C080917A028111F8CF6CC021
:104160002091F3008091F20090E0922B029729F4C5
:104170008091F1008B7F813021F48091F100809358
:1041800046028091E8008B7753C080917B02813A90
:1041900009F052C080917F0290918002892B09F032
:1041A0004BC08091E800877F8093E8008091E80011
:1041B00080FFFCCF80912C0136C080917B02813240
:1041C000D9F580917F0290918002892BA9F5809189
:1041D000E800877F8093E8000E94152380917D028C
:1041E00080932C010C94D41680917B02813221F5AE
:1041F0008091E800877F8093E8000E9415238091DA
:104200007E0280934702089580917B02813AA1F457
:104210008091E800877F8093E8008091E80080FF2C
:10422000FCCF809147028093F1008091E8008E7767
:104230008093E8000C941523089584B7877F84BF8A
:104240000FB6F894A8958091600088618093600013
:10425000109260000FBE90E080E80FB6F894809353
:104260006100909361000FBE0E940B120E946723B1
:104270000E94C4238091E20084608093E2007894DD
:104280000E9459260E94151282E291E00E948A1132
:1042900080917A028530A9F480917A02853079F490
:1042A0000E94791E809178028823B1F30E945F1EDC
:1042B000882391F30E94C0210E94D416EDCF0E9462
:1042C000A91E0E941F120E94FF110E94FE11E0CF42
:1042D0000C946A21292F332723303105C9F060F46B
:1042E0002130310581F02230310509F041C084E5EB
:1042F00090E02CE333E040C021323105E1F022327E
:10430000310531F135C082E190E020E933E034C07D
:1043100099278130910549F028F0029749F5ECEF93
:10432000F2E005C0E8E3F3E002C0EAE0F3E08491E4
:1043300090E09F0121C063307105D0F4660F771FB4
:10434000FB01EB55FE4F2081318189E090E014C0E4
:104350006330710568F4FB01EE0FFF1FE156FE4F5D
:1043600020813181FB01E456FE4F808190E004C042
:1043700080E090E020E030E0FA013183208308956E
:1043800080E189BD82E189BD09B400FEFDCF809145
:10439000D8008F7D8093D8008091E0008260809368
:1043A000E0008091E00081FDFCCF0895CF92DF9284
:1043B000EF92FF920F931F93CF93DF93EC018B014A
:1043C0007A010E943423811133C0E114F10439F0E1
:1043D000F70180819181081B190BC80FD91FC12CCF
:1043E000D12C0115110519F18091E80085FD16C049
:1043F0008091E8008E778093E800E114F10449F0A1
:10440000F70180819181C80ED91ED182C08285E0DA
:104410000FC00E943423882321F30AC0899180931E
:10442000F10001501109FFEFCF1ADF0ADACF80E067
:10443000DF91CF911F910F91FF90EF90DF90CF9080
:10444000089520918102309182022617370748F0A3
:104450006115710539F42091E8002E772093E8006A
:1044600001C0B901FC0120E06115710579F180916D
:104470007A028823F1F18530F1F18091E80083FD23
:104480003CC08091E80082FD2EC08091E80080FF52
:10449000EBCF2091F3008091F20090E0922B611518
:1044A000710551F08830910538F421912093F10085
:1044B000615071090196F3CF21E0089709F020E0DF
:1044C0008091E8008E778093E800CECF2111CFCF86
:1044D0000AC080917A02882361F0853061F0809172
:1044E000E80083FD0AC08091E80082FFF2CF80E0FF
:1044F000089582E0089583E0089581E00895209171
:104500008102309182022617370748F06115710544
:1045100039F42091E8002E772093E80001C0B9011A
:10452000FC0120E06115710591F180917A028823E8
:1045300009F440C0853009F43FC08091E80083FD54
:104540003DC08091E80082FD2FC08091E80080FF8F
:10455000E9CF2091F3008091F20090E0922B611559
:10456000710559F08830910540F424912093F100B1
:104570003196615071090196F2CF21E0089709F058
:1045800020E08091E8008E778093E800CBCF211166
:10459000CCCF0AC080917A02882361F0853061F027
:1045A0008091E80083FD0AC08091E80082FFF2CF8D
:1045B00080E0089582E0089583E0089581E0089501
:1045C000982F973068F59093E900981739F070911B
:1045D000EC002091ED005091F00003C0242F762FC5
:1045E00050E021FD02C09F5FECCF3091EB003E7F99
:1045F0003093EB003091ED003D7F3093ED00309132
:10460000EB0031603093EB007093EC002093ED00F1
:104610005093F0002091EE0027FDE5CF80E0089553
:104620008F708093E90081E0089580917B0287FF7D
:1046300011C08091E80082FD05C080917A0281114D
:10464000F8CF11C08091E8008B770BC080917A027F
:10465000882349F08091E80080FFF8CF8091E8003E
:104660008E778093E80008952091E4003091E50072
:1046700095E64091EC00842F817040FF23C080912B
:10468000E80080FD1DC080917A02882399F0853072
:1046900099F08091EB0085FD11C04091E4005091AC
:1046A000E5002417350729F3915011F09A01E1CF65
:1046B00084E0089582E0089583E0089581E00895FC
:1046C00080E008954091E80042FFDDCF08950E9408
:1046D000D5230E94DD23E0EEF0E0808181608083BD
:1046E000E8EDF0E080818F77808319BCA7EDB0E022
:1046F0008C918E7F8C9380818F7E80831092790243
:1047000008950F931F93CF93DF930E94D5230E94A8
:10471000DD23C8EDD0E088818F7788838881806829
:10472000888388818F7D888319BC10927A021092C9
:104730007602109278021092770200EE10E0F801F3
:1047400080818B7F808388818160888342E060E004
:1047500080E00E94E022E1EEF0E080818E7F8083A5
:10476000E2EEF0E0808181608083808188608083D8
:10477000F80180818E7F8083888180618883DF91CA
:10478000CF911F910F910895E8EDF0E080818F7E29
:104790008083E7EDF0E080818160808384E082BFE8
:1047A00081E0809379020C948123E8EDF0E0808130
:1047B0008E7F80831092E20008951092DA001092AA
:1047C000E10008951F920F920FB60F9211242F93BC
:1047D0003F934F935F936F937F938F939F93AF9389
:1047E000BF93EF93FF938091E10082FF0BC0809114
:1047F000E20082FF07C08091E1008B7F8093E1009F
:104800000E9458268091DA0080FF1FC08091D80056
:1048100080FF1BC08091DA008E7F8093DA00809148
:10482000D90080FF0DC080E189BD82E189BD09B456
:1048300000FEFDCF81E080937A020E943D2005C0FA
:1048400019BC10927A020E944B208091E10080FFF7
:1048500019C08091E20080FF15C08091E2008E7F38
:104860008093E2008091E20080618093E200809179
:10487000D80080628093D80019BC85E080937A02CA
:104880000E944F208091E10084FF30C08091E200BF
:1048900084FF2CC080E189BD82E189BD09B400FE9E
:1048A000FDCF8091D8008F7D8093D8008091E1006A
:1048B0008F7E8093E1008091E2008F7E8093E20002
:1048C0008091E20081608093E200809176028823EB
:1048D00011F084E007C08091E30087FD02C081E011
:1048E00001C083E080937A020E9450208091E10011
:1048F00083FF29C08091E20083FF25C08091E10001
:10490000877F8093E10082E080937A0210927602A2
:104910008091E1008E7F8093E1008091E2008E7FA4
:104920008093E2008091E20080618093E20042E0A7
:1049300060E080E00E94E0228091F0008860809337
:10494000F0000E944E20FF91EF91BF91AF919F9197
:104950008F917F916F915F914F913F912F910F9028
:104960000FBE0F901F9018951F920F920FB60F92C7
:1049700011242F933F934F935F936F937F938F9364
:104980009F93AF93BF93CF93DF93EF93FF93C09128
:10499000E900CF708091EC00D82FD17080FDD0E875
:1049A0001092E9008091F000877F8093F000789466
:1049B0000E94F8241092E9008091F00088608093B2
:1049C000F000CD2BCF70C093E900FF91EF91DF9104
:1049D000CF91BF91AF919F918F917F916F915F9197
:1049E0004F913F912F910F900FBE0F901F901895F0
:1049F0001F93CF93DF93CDB7DEB7AA970FB6F89486
:104A0000DEBF0FBECDBFEBE7F2E08091F1008193F6
:104A100022E0E338F207C9F70E9460208091E800A5
:104A200083FF2EC180917B0290917C02492F50E040
:104A30004A30510508F024C1FA01E455FF4F0C94A7
:104A4000BB26803821F0823809F01AC108C0809155
:104A5000770290917802992389F082600FC080914B
:104A60007F028F70873008F00BC18093E90080913E
:104A7000EB0085FB882780F91092E9009091E8000F
:104A8000977F9093E8008093F1001092F100D1C0DD
:104A9000282F2D7F09F0F4C0882319F0823061F0AF
:104AA000EFC080917D02813009F0EAC0933009F0B7
:104AB00080E0809378022EC080917D0281112AC00F
:104AC00080917F028F702FEF280F263008F0D8C01A
:104AD0008093E9002091EB0020FF1CC0933021F46B
:104AE0008091EB00806214C09091EB0090619093F4
:104AF000EB0021E030E0A90102C0440F551F8A9568
:104B0000E2F74093EA001092EA008091EB0088609F
:104B10008093EB001092E9008091E800877F8093FA
:104B2000E8000E941523ACC08111AAC010917D023B
:104B30001F778091E3008078812B8093E300809140
:104B4000E800877F8093E8000E9415238091E800A9
:104B500080FFFCCF8091E30080688093E300111117
:104B600002C082E001C083E080937A0289C080584D
:104B7000823008F085C080917D0290917E028C3D4C
:104B800053E0950779F583E08A838AE289834FB7FA
:104B9000F894DE01139620E03EE051E2E32FF0E0CE
:104BA00050935700E49120FF03C0E295EF703F5F00
:104BB000EF708E2F90E0EA3010F0C79601C0C096DB
:104BC0008D939D932F5F243149F74FBF8091E8006B
:104BD000877F8093E8006AE270E0CE0101960E9430
:104BE000212216C060917F0270918002AE014F5F5A
:104BF0005F4F0E946821BC01892B09F441C090914C
:104C0000E800977F9093E80089819A810E947F2233
:104C10008091E8008B778093E80032C0803881F57E
:104C20008091E800877F8093E800809176028093EE
:104C3000F1008091E8008E7772CF811121C08091C0
:104C40007D0290917E0299270297D4F48091E8002A
:104C5000877F8093E80080917D02809376020E9496
:104C6000152380917602811106C08091E30087FDB3
:104C700002C081E001C084E080937A020E9451204A
:104C80008091E80083FF0AC08091E800877F8093CD
:104C9000E8008091EB0080628093EB00AA960FB64B
:104CA000F894DEBF0FBECDBFDF91CF911F91089565
:104CB0000895CF9380917A028823A1F0C091E900F2
:104CC000CF709091EC00892F817090FD80E8C82B07
:104CD0001092E9008091E80083FD0E94F824CF70D3
:104CE000C093E900CF910895AA1BBB1B51E107C0F7
:104CF000AA1FBB1FA617B70710F0A61BB70B881F6C
:104D0000991F5A95A9F780959095BC01CD010895FA
:104D100097FB072E16F4009407D077FD09D00E9468
:104D2000742607FC05D03EF4909581959F4F089519
:104D3000709561957F4F0895052E97FB1EF40094A2
:104D40000E94B32657FD07D00E94D42607FC03D04B
:104D50004EF40C94B32650954095309521953F4FD5
:104D60004F4F5F4F089590958095709561957F4F57
:104D70008F4F9F4F0895EE0FFF1F0590F491E02D88
:104D800009940E94F626A59F900DB49F900DA49FB4
:104D9000800D911D11240895B7FF0C94C1260E9427
:104DA000C126821B930B0895A1E21A2EAA1BBB1BDE
:104DB000FD010DC0AA1FBB1FEE1FFF1FA217B307E7
:104DC000E407F50720F0A21BB30BE40BF50B661FFD
:104DD000771F881F991F1A9469F7609570958095C1
:104DE00090959B01AC01BD01CF010895A29FB00138
:104DF000B39FC001A39F700D811D1124911DB29F0F
:104E0000700D811D1124911D0895F999FECF92BD59
:104E100081BDF89A992780B50895A6E1B0E044E0F5
:104E200050E00C943F27A8E1B0E042E050E00C9441
:104E30003F27262FF999FECF92BD81BDF89A0197A1
:104E400000B4021639F01FBA20BD0FB6F894FA9AD2
:104E5000F99A0FBE08950396272F0E941A270E94E1
:104E60001927252F0E941A27242F0C941A27019600
:104E7000272F0E941A270C941927DC01CB01FC0173
:104E8000F999FECF06C0F2BDE1BDF89A319600B4A3
:0E4E90000D9241505040B8F70895F894FFCFAE
:104E9E00FFFFFF0000FF030000FFFFFF0000FF0306
:104EAE0000002808641E140A321E00090009094079
:104EBE0031027E1FDB1FBC1FB81FB41F01E200E9C9
:104ECE0000EA00B500B600B700CD008301CC008A21
:104EDE0001920194012102230224022502260227B7
:104EEE00022A02B300B4006F007000818283919099
:104EFE00946697C634353633320001E200E900EA93
:104F0E0000B500B600B700CD008301CC008A019237
:104F1E000194012102230224022502260227022ADD
:104F2E0002B300B4006F007000818283407B304D6D
:0C4F3E0004D203A2034E036703800300AB
:00000001FF
